{
  "_format": "hh-sol-artifact-1",
  "contractName": "BurnContract",
  "sourceName": "contracts/BurnContract.sol",
  "abi": [
    {
      "anonymous": false,
      "inputs": [
        {
          "indexed": false,
          "internalType": "uint256",
          "name": "",
          "type": "uint256"
        }
      ],
      "name": "FoundEvent",
      "type": "event"
    },
    {
      "anonymous": false,
      "inputs": [],
      "name": "NotFoundEvent",
      "type": "event"
    },
    {
      "anonymous": false,
      "inputs": [
        {
          "indexed": false,
          "internalType": "uint256",
          "name": "",
          "type": "uint256"
        },
        {
          "indexed": false,
          "internalType": "uint256",
          "name": "",
          "type": "uint256"
        }
      ],
      "name": "SetEvent",
      "type": "event"
    },
    {
      "inputs": [
        {
          "internalType": "uint256",
          "name": "key",
          "type": "uint256"
        }
      ],
      "name": "get",
      "outputs": [
        {
          "internalType": "uint256",
          "name": "",
          "type": "uint256"
        }
      ],
      "stateMutability": "view",
      "type": "function"
    },
    {
      "inputs": [],
      "name": "randomSeed",
      "outputs": [
        {
          "internalType": "uint256",
          "name": "",
          "type": "uint256"
        }
      ],
      "stateMutability": "view",
      "type": "function"
    },
    {
      "inputs": [
        {
          "internalType": "uint256",
          "name": "key",
          "type": "uint256"
        },
        {
          "internalType": "uint256",
          "name": "count",
          "type": "uint256"
        },
        {
          "internalType": "uint256",
          "name": "needle",
          "type": "uint256"
        }
      ],
      "name": "search",
      "outputs": [
        {
          "internalType": "bool",
          "name": "",
          "type": "bool"
        }
      ],
      "stateMutability": "nonpayable",
      "type": "function"
    },
    {
      "inputs": [
        {
          "internalType": "uint256",
          "name": "key",
          "type": "uint256"
        },
        {
          "internalType": "uint256",
          "name": "value",
          "type": "uint256"
        }
      ],
      "name": "set",
      "outputs": [],
      "stateMutability": "nonpayable",
      "type": "function"
    },
    {
      "inputs": [
        {
          "internalType": "uint256",
          "name": "key",
          "type": "uint256"
        },
        {
          "internalType": "uint256",
          "name": "count",
          "type": "uint256"
        }
      ],
      "name": "write",
      "outputs": [],
      "stateMutability": "nonpayable",
      "type": "function"
    }
  ],
  "bytecode": "0x608060405234801561001057600080fd5b506106d6806100206000396000f3fe608060405234801561001057600080fd5b50600436106100575760003560e01c80630b747d911461005c5780631ab06ee51461007a5780639507d39a146100965780639c0e3f7a146100c6578063c5f5fbb4146100e2575b600080fd5b610064610112565b6040516100719190610336565b60405180910390f35b610094600480360381019061008f9190610382565b610147565b005b6100b060048036038101906100ab91906103c2565b61019b565b6040516100bd9190610336565b60405180910390f35b6100e060048036038101906100db9190610382565b6101b7565b005b6100fc60048036038101906100f791906103ef565b61025a565b604051610109919061045d565b60405180910390f35b600042443360405160200161012993929190610513565b6040516020818303038152906040528051906020012060001c905090565b80600080848152602001908152602001600020819055507f187d45cdcffadef7c066a1f9cc05d58c3ec1a3887390655dba7d64bb61c5a66b828260405161018f929190610550565b60405180910390a15050565b6000806000838152602001908152602001600020549050919050565b600063ffffffff6101c6610112565b16905060005b82811015610254576000805b602081101561022a5763ffffffff6111d1620181f1866101f891906105a8565b6102029190610602565b169350600882901b915060ff841660ff1682179150808061022290610658565b9150506101d8565b50610240828661023a9190610602565b82610147565b50808061024c90610658565b9150506101cc565b50505050565b600080600090505b838110156102e4578261027f828761027a9190610602565b61019b565b036102d1577ff85fd15c569c8d70f0d67c3240ba6f13417041e8894e86f29e7456b9c09a04bf6001866102b29190610602565b6040516102bf9190610336565b60405180910390a16001915050610316565b80806102dc90610658565b915050610262565b507f0cdcc9a2ba29aaf0e1c4690f1d5b6c2ab5d21e3e92e6ae9d163e6e9f857d1ea260405160405180910390a1600090505b9392505050565b6000819050919050565b6103308161031d565b82525050565b600060208201905061034b6000830184610327565b92915050565b600080fd5b61035f8161031d565b811461036a57600080fd5b50565b60008135905061037c81610356565b92915050565b6000806040838503121561039957610398610351565b5b60006103a78582860161036d565b92505060206103b88582860161036d565b9150509250929050565b6000602082840312156103d8576103d7610351565b5b60006103e68482850161036d565b91505092915050565b60008060006060848603121561040857610407610351565b5b60006104168682870161036d565b93505060206104278682870161036d565b92505060406104388682870161036d565b9150509250925092565b60008115159050919050565b61045781610442565b82525050565b6000602082019050610472600083018461044e565b92915050565b6000819050919050565b61049361048e8261031d565b610478565b82525050565b600073ffffffffffffffffffffffffffffffffffffffff82169050919050565b60006104c482610499565b9050919050565b60008160601b9050919050565b60006104e3826104cb565b9050919050565b60006104f5826104d8565b9050919050565b61050d610508826104b9565b6104ea565b82525050565b600061051f8286610482565b60208201915061052f8285610482565b60208201915061053f82846104fc565b601482019150819050949350505050565b60006040820190506105656000830185610327565b6105726020830184610327565b9392505050565b7f4e487b7100000000000000000000000000000000000000000000000000000000600052601160045260246000fd5b60006105b38261031d565b91506105be8361031d565b9250817fffffffffffffffffffffffffffffffffffffffffffffffffffffffffffffffff04831182151516156105f7576105f6610579565b5b828202905092915050565b600061060d8261031d565b91506106188361031d565b9250827fffffffffffffffffffffffffffffffffffffffffffffffffffffffffffffffff0382111561064d5761064c610579565b5b828201905092915050565b60006106638261031d565b91507fffffffffffffffffffffffffffffffffffffffffffffffffffffffffffffffff820361069557610694610579565b5b60018201905091905056fea264697066735822122084b05d08b4771509d158d74bb6871bd872fe7ebf49b3c00e183af43e1fe5428064736f6c634300080d0033",
  "linkReferences": {},
  "deployedLinkReferences": {}
}